{
  "abi": [
    {
      "inputs": [],
      "stateMutability": "nonpayable",
      "type": "constructor"
    },
    {
      "inputs": [],
      "name": "AlreadyMinted",
      "type": "error"
    },
    {
      "inputs": [],
      "name": "CannotApprove",
      "type": "error"
    },
    {
      "inputs": [],
      "name": "CannotTransfer",
      "type": "error"
    },
    {
      "inputs": [],
      "name": "InvalidAddress",
      "type": "error"
    },
    {
      "inputs": [],
      "name": "InvalidOwner",
      "type": "error"
    },
    {
      "inputs": [],
      "name": "InvalidToken",
      "type": "error"
    },
    {
      "anonymous": false,
      "inputs": [
        {
          "indexed": true,
          "internalType": "address",
          "name": "owner",
          "type": "address"
        },
        {
          "indexed": true,
          "internalType": "address",
          "name": "approved",
          "type": "address"
        },
        {
          "indexed": true,
          "internalType": "uint256",
          "name": "tokenId",
          "type": "uint256"
        }
      ],
      "name": "Approval",
      "type": "event"
    },
    {
      "anonymous": false,
      "inputs": [
        {
          "indexed": true,
          "internalType": "address",
          "name": "owner",
          "type": "address"
        },
        {
          "indexed": true,
          "internalType": "address",
          "name": "operator",
          "type": "address"
        },
        {
          "indexed": false,
          "internalType": "bool",
          "name": "approved",
          "type": "bool"
        }
      ],
      "name": "ApprovalForAll",
      "type": "event"
    },
    {
      "anonymous": false,
      "inputs": [
        {
          "indexed": true,
          "internalType": "address",
          "name": "from",
          "type": "address"
        },
        {
          "indexed": true,
          "internalType": "address",
          "name": "to",
          "type": "address"
        },
        {
          "indexed": true,
          "internalType": "uint256",
          "name": "tokenId",
          "type": "uint256"
        }
      ],
      "name": "Transfer",
      "type": "event"
    },
    {
      "inputs": [
        {
          "internalType": "address",
          "name": "",
          "type": "address"
        },
        {
          "internalType": "uint256",
          "name": "",
          "type": "uint256"
        }
      ],
      "name": "approve",
      "outputs": [],
      "stateMutability": "pure",
      "type": "function"
    },
    {
      "inputs": [
        {
          "internalType": "address",
          "name": "owner",
          "type": "address"
        }
      ],
      "name": "balanceOf",
      "outputs": [
        {
          "internalType": "uint256",
          "name": "",
          "type": "uint256"
        }
      ],
      "stateMutability": "view",
      "type": "function"
    },
    {
      "inputs": [],
      "name": "burn",
      "outputs": [],
      "stateMutability": "nonpayable",
      "type": "function"
    },
    {
      "inputs": [],
      "name": "currentTokenId",
      "outputs": [
        {
          "internalType": "uint256",
          "name": "",
          "type": "uint256"
        }
      ],
      "stateMutability": "view",
      "type": "function"
    },
    {
      "inputs": [
        {
          "internalType": "uint256",
          "name": "",
          "type": "uint256"
        }
      ],
      "name": "getApproved",
      "outputs": [
        {
          "internalType": "address",
          "name": "",
          "type": "address"
        }
      ],
      "stateMutability": "pure",
      "type": "function"
    },
    {
      "inputs": [
        {
          "internalType": "address",
          "name": "",
          "type": "address"
        },
        {
          "internalType": "address",
          "name": "",
          "type": "address"
        }
      ],
      "name": "isApprovedForAll",
      "outputs": [
        {
          "internalType": "bool",
          "name": "",
          "type": "bool"
        }
      ],
      "stateMutability": "pure",
      "type": "function"
    },
    {
      "inputs": [],
      "name": "mint",
      "outputs": [],
      "stateMutability": "nonpayable",
      "type": "function"
    },
    {
      "inputs": [
        {
          "internalType": "address",
          "name": "",
          "type": "address"
        }
      ],
      "name": "minted",
      "outputs": [
        {
          "internalType": "bool",
          "name": "",
          "type": "bool"
        }
      ],
      "stateMutability": "view",
      "type": "function"
    },
    {
      "inputs": [],
      "name": "name",
      "outputs": [
        {
          "internalType": "string",
          "name": "",
          "type": "string"
        }
      ],
      "stateMutability": "view",
      "type": "function"
    },
    {
      "inputs": [
        {
          "internalType": "uint256",
          "name": "tokenId",
          "type": "uint256"
        }
      ],
      "name": "ownerOf",
      "outputs": [
        {
          "internalType": "address",
          "name": "",
          "type": "address"
        }
      ],
      "stateMutability": "view",
      "type": "function"
    },
    {
      "inputs": [
        {
          "internalType": "address",
          "name": "",
          "type": "address"
        },
        {
          "internalType": "address",
          "name": "",
          "type": "address"
        },
        {
          "internalType": "uint256",
          "name": "",
          "type": "uint256"
        }
      ],
      "name": "safeTransferFrom",
      "outputs": [],
      "stateMutability": "pure",
      "type": "function"
    },
    {
      "inputs": [
        {
          "internalType": "address",
          "name": "",
          "type": "address"
        },
        {
          "internalType": "address",
          "name": "",
          "type": "address"
        },
        {
          "internalType": "uint256",
          "name": "",
          "type": "uint256"
        },
        {
          "internalType": "bytes",
          "name": "",
          "type": "bytes"
        }
      ],
      "name": "safeTransferFrom",
      "outputs": [],
      "stateMutability": "pure",
      "type": "function"
    },
    {
      "inputs": [
        {
          "internalType": "address",
          "name": "",
          "type": "address"
        },
        {
          "internalType": "bool",
          "name": "",
          "type": "bool"
        }
      ],
      "name": "setApprovalForAll",
      "outputs": [],
      "stateMutability": "pure",
      "type": "function"
    },
    {
      "inputs": [
        {
          "internalType": "bytes4",
          "name": "interfaceId",
          "type": "bytes4"
        }
      ],
      "name": "supportsInterface",
      "outputs": [
        {
          "internalType": "bool",
          "name": "",
          "type": "bool"
        }
      ],
      "stateMutability": "pure",
      "type": "function"
    },
    {
      "inputs": [],
      "name": "symbol",
      "outputs": [
        {
          "internalType": "string",
          "name": "",
          "type": "string"
        }
      ],
      "stateMutability": "view",
      "type": "function"
    },
    {
      "inputs": [
        {
          "internalType": "address",
          "name": "owner",
          "type": "address"
        }
      ],
      "name": "tokenOf",
      "outputs": [
        {
          "internalType": "uint256",
          "name": "",
          "type": "uint256"
        }
      ],
      "stateMutability": "view",
      "type": "function"
    },
    {
      "inputs": [
        {
          "internalType": "uint256",
          "name": "tokenId",
          "type": "uint256"
        }
      ],
      "name": "tokenURI",
      "outputs": [
        {
          "internalType": "string",
          "name": "",
          "type": "string"
        }
      ],
      "stateMutability": "view",
      "type": "function"
    },
    {
      "inputs": [
        {
          "internalType": "address",
          "name": "",
          "type": "address"
        },
        {
          "internalType": "address",
          "name": "",
          "type": "address"
        },
        {
          "internalType": "uint256",
          "name": "",
          "type": "uint256"
        }
      ],
      "name": "transferFrom",
      "outputs": [],
      "stateMutability": "pure",
      "type": "function"
    }
  ],
  "bytecode": {
    "object": "0x60066102008181526536353465613360d01b610220526101c0908152610240828152650cac2c2ccc6760d31b610260526101e05260809081526102c08281526518cd9999991960d21b6102e05261028090815261030083815265198dcdce4dd960d21b610320526102a05260a0526103808281526533331c9c9b1b60d11b6103a0526103409081526103c08381526533331ab29b1960d11b6103e0526103605260c0526104408281526563306330616160d01b610460526104009081526104808381526518b1b2b3333360d11b6104a0526104205260e0526105008281526533319818333360d11b610520526104c09081526105408381526530306462646560d01b610560526104e052610100526105c08281526566626433653960d01b6105e0526105809081526106008381526518988ccdcdd960d21b610620526105a05261012052610680828152651919991a991b60d11b6106a0526106409081526106c08381526537613761376160d01b6106e05261066052610140526107408281526503161323938360d41b610760526107009081526107808381526532366430636560d01b6107a05261072052610160526108008281526566666532353960d01b610820526107c09081526108408381526566666137353160d01b610860526107e052610180526108c08281526530303739393160d01b6108e052610880908152610940604052610900928352651b9c3333321b60d11b610920526108a0929092526101a0919091526200023790600790600a620002c8565b503480156200024557600080fd5b506040805180820190915260138082527f616c742e75672056697369746f72204e4654730000000000000000000000000060209092019182526200028c916004916200031a565b5060408051808201909152600680825265616c742e756760d01b6020909201918252620002bc916005916200031a565b506001600655620004f1565b60148301918390821562000308579160200282015b8281111562000308578251620002f79083906002620003a5565b5091602001919060020190620002dd565b5062000316929150620003f8565b5090565b8280546200032890620004b5565b90600052602060002090601f0160209004810192826200034c576000855562000397565b82601f106200036757805160ff191683800117855562000397565b8280016001018555821562000397579182015b82811115620003975782518255916020019190600101906200037a565b506200031692915062000419565b8260028101928215620003ea579160200282015b82811115620003ea5782518051620003d99184916020909101906200031a565b5091602001919060010190620003b9565b506200031692915062000430565b80821115620003165760006200040f828262000451565b50600201620003f8565b5b808211156200031657600081556001016200041a565b808211156200031657600062000447828262000473565b5060010162000430565b50600062000460828262000473565b506200047190600101600062000473565b565b5080546200048190620004b5565b6000825580601f1062000492575050565b601f016020900490600052602060002090810190620004b2919062000419565b50565b600181811c90821680620004ca57607f821691505b602082108103620004eb57634e487b7160e01b600052602260045260246000fd5b50919050565b6114f180620005016000396000f3fe608060405234801561001057600080fd5b50600436106101155760003560e01c806342ec38e2116100a257806395d89b411161007157806395d89b411461023a578063a22cb46514610242578063b88d4fde14610250578063c87b56dd1461025e578063e985e9c51461027157600080fd5b806342ec38e2146101f957806344df8e701461020c5780636352211e1461021457806370a082311461022757600080fd5b8063095ea7b3116100e9578063095ea7b3146101a65780631249c58b146101bb5780631e7269c5146101c357806323b872dd146101e657806342842e0e146101e657600080fd5b80629a9b7b1461011a57806301ffc9a71461013157806306fdde0314610165578063081812fc1461017a575b600080fd5b6006545b6040519081526020015b60405180910390f35b61015561013f366004610a9b565b6001600160e01b0319166380ac58cd60e01b1490565b6040519015158152602001610128565b61016d610287565b6040516101289190610afc565b61018e610188366004610b2f565b50600090565b6040516001600160a01b039091168152602001610128565b6101b96101b4366004610b64565b610319565b005b6101b9610332565b6101556101d1366004610b8e565b60006020819052908152604090205460ff1681565b6101b96101f4366004610ba9565b61041c565b61011e610207366004610b8e565b610435565b6101b9610474565b61018e610222366004610b2f565b610514565b61011e610235366004610b8e565b61054a565b61016d61059a565b6101b96101b4366004610be5565b6101b96101f4366004610c21565b61016d61026c366004610b2f565b6105a9565b61015561027f366004610cbc565b600092915050565b60606004805461029690610cef565b80601f01602080910402602001604051908101604052809291908181526020018280546102c290610cef565b801561030f5780601f106102e45761010080835404028352916020019161030f565b820191906000526020600020905b8154815290600101906020018083116102f257829003601f168201915b5050505050905090565b604051634ba84e0d60e01b815260040160405180910390fd5b3360009081526020819052604090205460ff161561036357604051631bbdf5c560e31b815260040160405180910390fd5b33600081815260208181526040808320805460ff1916600190811790915560065460028452828520819055808552925290912080546001600160a01b0319169092179091556103b18161064b565b600082815260036020908152604090912082516103d493919291909101906109c5565b50604051819033906000907fddf252ad1be2c89b69c2b068fc378daa952ba7f163c4a11628f55a4df523b3ef908290a46006805490600061041483610d3f565b919050555050565b60405163cc7744d560e01b815260040160405180910390fd5b6001600160a01b03811660009081526002602052604081205480820361046e5760405163c1ab6dc160e01b815260040160405180910390fd5b92915050565b33600090815260026020526040812054908190036104a55760405163c1ab6dc160e01b815260040160405180910390fd5b3360009081526002602090815260408083208390558383526001825280832080546001600160a01b0319169055600390915281206104e291610a49565b604051819060009033907fddf252ad1be2c89b69c2b068fc378daa952ba7f163c4a11628f55a4df523b3ef908390a450565b6000818152600160205260408120546001600160a01b03168061046e576040516349e27cff60e01b815260040160405180910390fd5b60006001600160a01b038216610573576040516349e27cff60e01b815260040160405180910390fd5b3360009081526002602052604090205461058e576000610591565b60015b60ff1692915050565b60606005805461029690610cef565b60008181526003602052604090208054606091906105c690610cef565b80601f01602080910402602001604051908101604052809291908181526020018280546105f290610cef565b801561063f5780601f106106145761010080835404028352916020019161063f565b820191906000526020600020905b81548152906001019060200180831161062257829003601f168201915b50505050509050919050565b606061068f610659836106b5565b61066a610665856107be565b610872565b60405160200161067b929190610d74565b604051602081830303815290604052610872565b60405160200161069f9190610e3e565b6040516020818303038152906040529050919050565b6060816000036106dc5750506040805180820190915260018152600360fc1b602082015290565b8160005b811561070657806106f081610d3f565b91506106ff9050600a83610e99565b91506106e0565b60008167ffffffffffffffff81111561072157610721610ead565b6040519080825280601f01601f19166020018201604052801561074b576020820181803683370190505b5090505b84156107b657610760600183610ec3565b915061076d600a86610eda565b610778906030610eee565b60f81b81838151811061078d5761078d610f06565b60200101906001600160f81b031916908160001a9053506107af600a86610e99565b945061074f565b949350505050565b6040805143602082015242918101919091524160608281019190915233608083015290600090600a9060a0016040516020818303038152906040528051906020012060001c61080d9190610eda565b9050600781600a811061082257610822610f06565b60020201600782600a811061083957610839610f06565b60020201600101610849856106b5565b60405160200161085b93929190610fb5565b604051602081830303815290604052915050919050565b6060815160000361089157505060408051602081019091526000815290565b600060405180606001604052806040815260200161147c60409139905060006003845160026108c09190610eee565b6108ca9190610e99565b6108d590600461145c565b67ffffffffffffffff8111156108ed576108ed610ead565b6040519080825280601f01601f191660200182016040528015610917576020820181803683370190505b509050600182016020820185865187015b80821015610983576003820191508151603f8160121c168501518453600184019350603f81600c1c168501518453600184019350603f8160061c168501518453600184019350603f8116850151845350600183019250610928565b505060038651066001811461099f57600281146109b2576109ba565b603d6001830353603d60028303536109ba565b603d60018303535b509195945050505050565b8280546109d190610cef565b90600052602060002090601f0160209004810192826109f35760008555610a39565b82601f10610a0c57805160ff1916838001178555610a39565b82800160010185558215610a39579182015b82811115610a39578251825591602001919060010190610a1e565b50610a45929150610a86565b5090565b508054610a5590610cef565b6000825580601f10610a65575050565b601f016020900490600052602060002090810190610a839190610a86565b50565b5b80821115610a455760008155600101610a87565b600060208284031215610aad57600080fd5b81356001600160e01b031981168114610ac557600080fd5b9392505050565b60005b83811015610ae7578181015183820152602001610acf565b83811115610af6576000848401525b50505050565b6020815260008251806020840152610b1b816040850160208701610acc565b601f01601f19169190910160400192915050565b600060208284031215610b4157600080fd5b5035919050565b80356001600160a01b0381168114610b5f57600080fd5b919050565b60008060408385031215610b7757600080fd5b610b8083610b48565b946020939093013593505050565b600060208284031215610ba057600080fd5b610ac582610b48565b600080600060608486031215610bbe57600080fd5b610bc784610b48565b9250610bd560208501610b48565b9150604084013590509250925092565b60008060408385031215610bf857600080fd5b610c0183610b48565b915060208301358015158114610c1657600080fd5b809150509250929050565b600080600080600060808688031215610c3957600080fd5b610c4286610b48565b9450610c5060208701610b48565b935060408601359250606086013567ffffffffffffffff80821115610c7457600080fd5b818801915088601f830112610c8857600080fd5b813581811115610c9757600080fd5b896020828501011115610ca957600080fd5b9699959850939650602001949392505050565b60008060408385031215610ccf57600080fd5b610cd883610b48565b9150610ce660208401610b48565b90509250929050565b600181811c90821680610d0357607f821691505b602082108103610d2357634e487b7160e01b600052602260045260246000fd5b50919050565b634e487b7160e01b600052601160045260246000fd5b600060018201610d5157610d51610d29565b5060010190565b60008151610d6a818560208601610acc565b9290920192915050565b727b226e616d65223a202256697369746f72202360681b81528251600090610da3816013850160208801610acc565b7f222c20226465736372697074696f6e223a2022416e204e465420666f722076696013918401918201527f736974696e6720616c742e7567222c2022696d616765223a2022646174613a696033820152731b5859d94bdcdd99cade1b5b0ed8985cd94d8d0b60621b60538201528351610e23816067840160208801610acc565b61227d60f01b60679290910191820152606901949350505050565b7f646174613a6170706c69636174696f6e2f6a736f6e3b6261736536342c000000815260008251610e7681601d850160208701610acc565b91909101601d0192915050565b634e487b7160e01b600052601260045260246000fd5b600082610ea857610ea8610e83565b500490565b634e487b7160e01b600052604160045260246000fd5b600082821015610ed557610ed5610d29565b500390565b600082610ee957610ee9610e83565b500690565b60008219821115610f0157610f01610d29565b500190565b634e487b7160e01b600052603260045260246000fd5b8054600090600181811c9080831680610f3657607f831692505b60208084108203610f5757634e487b7160e01b600052602260045260246000fd5b818015610f6b5760018114610f7c57610fa9565b60ff19861689528489019650610fa9565b60008881526020902060005b86811015610fa15781548b820152908501908301610f88565b505084890196505b50505050505092915050565b7f3c73766720786d6c6e733d22687474703a2f2f7777772e77332e6f72672f323081527f30302f737667222077696474683d2232373022206865696768743d223237302260208201527f2066696c6c3d226e6f6e65223e3c706174682066696c6c3d2275726c2823422960408201527f2220643d224d302030683237307632373048307a222f3e3c646566733e3c666960608201527f6c7465722069643d22412220636f6c6f722d696e746572706f6c6174696f6e2d60808201527f66696c746572733d2273524742222066696c746572556e6974733d227573657260a08201527f53706163654f6e55736522206865696768743d22323730222077696474683d2260c08201527f323730223e3c666544726f70536861646f772064783d2230222064793d22312260e08201527f20737464446576696174696f6e3d22322220666c6f6f642d6f7061636974793d6101008201527f222e323235222077696474683d223230302522206865696768743d22323030256101208201527f222f3e3c2f66696c7465723e3c2f646566733e3c646566733e3c6c696e6561726101408201527f4772616469656e742069643d2242222078313d2230222079313d2230222078326101608201527f3d22323730222079323d2232373022206772616469656e74556e6974733d22756101808201527f73657253706163654f6e557365223e3c73746f702073746f702d636f6c6f723d6101a082015261222360f01b6101c0820152600061145361139f61139961123061122a6111f76101c288018b610f1c565b7f222f3e3c73746f70206f66667365743d2231222073746f702d636f6c6f723d228152602360f81b602082015260210190565b88610f1c565b7f222073746f702d6f7061636974793d222e3939222f3e3c2f6c696e656172477281527f616469656e743e3c2f646566733e3c7465787420783d2232302220793d22333060208201527f2220666f6e742d73697a653d223132222066696c6c3d2223666666222066696c60408201527f7465723d2275726c282341292220666f6e742d66616d696c793d22436f75726960608201527f6572204e65772220666f6e742d7765696768743d22626f6c64223e3e413c2f7460808201527f6578743e3c7465787420783d223232302220793d223234302220666f6e742d7360a08201527f697a653d223132222066696c6c3d2223666666222066696c7465723d2275726c60c08201527f282341292220666f6e742d66616d696c793d2248656c7665746963612220666f60e08201527f6e742d7765696768743d22626f6c642220746578742d616e63686f723d22656e6101008201526364223e2360e01b6101208201526101240190565b85610d58565b7f3c2f746578743e3c7465787420783d2234322220793d223134322220666f6e7481527f2d73697a653d223237222066696c6c3d2223666666222066696c7465723d227560208201527f726c282341292220666f6e742d66616d696c793d2248656c766574696361222060408201527f666f6e742d7765696768743d22626f6c64223e49207669736974656420616c7460608201526f173ab39e17ba32bc3a1f1e17b9bb339f60811b608082015260900190565b95945050505050565b600081600019048311821515161561147657611476610d29565b50029056fe4142434445464748494a4b4c4d4e4f505152535455565758595a6162636465666768696a6b6c6d6e6f707172737475767778797a303132333435363738392b2fa2646970667358221220bc96345048974f6fa964710aaf8594cbd7dfc73bef4ac72ee3c0c4bf3d4e697064736f6c634300080d0033",
    "linkReferences": {}
  }
}